S010000041544D45474131362E73726563FE
S113000029C0000037C0000035C00000BFC0000098
S113001031C000002FC00000AEC000002BC00000A3
S113002029C0000027C0000025C0000024C0000033
S11300303DC000001FC000001DC000001BC0000028
S113004019C0000017C0000015C000008AC00000DD
S113005011C0000011241FBECFE5D4E0DEBFCDBF28
S113006020E0A0E6B0E001C01D92AF3AB207E1F78C
S1130070BDD1D1C1C5CF1F920F920FB60F921124DB
S11300808F93EF93FF938CB1E0916100EF5FEF7179
S1130090E0936100F0E0EC59FF4F8083FF91EF9112
S11300A08F910F900FBE0F901F9018951F920F9273
S11300B00FB60F9211248F939F93EF93FF93909118
S11300C0630080916200981761F0E0916200EF5F35
S11300D0EF71E0936200F0E0EC57FF4F80818CB940
S11300E001C05598FF91EF919F918F910F900FBE92
S11300F00F901F9018951092630010926200109256
S113010061001092600083E389B910BC86E880BD69
S113011088E98AB9089590916100809160009817E8
S113012059F0E0916000EF5FEF71E0936000F0E060
S1130130EC59FF4F8081089580E008959091630009
S11301409F5F9F71E92FF0E0EC57FF4F80839093FE
S1130150630008958091610090916000891B8F7104
S113016008951F920F920FB60F9211240F900FBE95
S11301700F901F9018951F920F920FB60F92112493
S1130180939A0F900FBE0F901F9018951F920F9285
S11301900FB60F9211242F933F938F939F938091C7
S11301A0AA009091AB0001979093AB008093AA00B2
S11301B02091A7003091A8003695279582179307C0
S11301C010F4949A03C082B38C7E82BB8091AA00FF
S11301D09091AB00892B41F48091A7009091A800E5
S11301E09093AB008093AA009F918F913F912F91A0
S11301F00F900FBE0F901F90189583B7856083BF33
S113020083B7886083BF12BE8EE48CBF89B78260D7
S113021089BF13BE08958EB585608EBD8EB5886086
S11302208EBD1DBC1CBC85E89EE19BBD8ABD89B703
S1130230806189BF089585B5876085BD85B588606F
S113024085BD14BC87E083BD89B7806889BF0895E4
S11302508091A600803351F48091AC00803321F466
S113026082B38C7D82BB0895959A0895959B02C0B4
S113027081E301C080E38093AC0008958091A600DF
S1130280823319F58091AC00803349F482B38C7EBB
S113029082BB15BC1092A8001092A70031C0813314
S11302A019F48AEF90E00CC0823319F484EF91E0E2
S11302B007C0833319F488EE93E002C080ED97E021
S11302C09093A8008093A7001BC08091A7009091F1
S11302D0A800009711F480E311C08A3F910511F43E
S11302E081E30CC0843F21E0920711F482E306C04D
S11302F0883E934011F483E301C084E38093AC000F
S11303008091A7009091A8009093AB008093AA00DD
S11303108091AC0081118FCF08951CDF8093AE00D3
S1130320853008F462C0F7DE8093AD00823009F0B6
S11303305CC08093A900EFDE8093A60090ED980F37
S1130340943008F052C09091A900890F8093A900BD
S1130350E2DE8093AC009091A900890F8093A900FC
S1130360DADE8093AE009091A90089133EC0D3DEFB
S11303708093A500863009F038C08091A6008033B0
S113038031F48091AC008053823078F506C081331B
S113039031F48091AC00803341F55ADF0FC08233D1
S11303A031F48091AC008053853038F00895833364
S11303B0E1F48091AC008033C1F460DF1DBC1CBC4F
S11303C082B3847F82BB8091AD00B8DE8091A600A9
S11303D0805FB4DE8091AC00B1DE8091A900805FC3
S11303E0ADDE8091A500AADE559A089584DE05DF6E
S11303F012DF21DF78948FEF81BB12BA81E0809302
S1130400A4001092A8001092A7001092AB001092C2
S10D0410AA0083DFFECFF894FFCFAB
S9030000FC
