:1000000029C0000037C0000035C00000BFC000009C
:1000100031C000002FC00000AEC000002BC00000A7
:1000200029C0000027C0000025C0000024C0000037
:100030003DC000001FC000001DC000001BC000002C
:1000400019C0000017C0000015C000008AC00000E1
:1000500011C0000011241FBECFE5D4E0DEBFCDBF2C
:1000600020E0A0E6B0E001C01D92AF3AB207E1F790
:10007000D3D1E7C1C5CF1F920F920FB60F921124B3
:100080008F93EF93FF938CB1E0916100EF5FEF717D
:10009000E0936100F0E0EC59FF4F8083FF91EF9116
:1000A0008F910F900FBE0F901F9018951F920F9277
:1000B0000FB60F9211248F939F93EF93FF9390911C
:1000C000630080916200981761F0E0916200EF5F39
:1000D000EF71E0936200F0E0EC57FF4F80818CB944
:1000E00001C05598FF91EF919F918F910F900FBE96
:1000F0000F901F901895109263001092620010925A
:1001000061001092600083E389B910BC86E880BD6D
:1001100088E98AB9089590916100809160009817EC
:1001200059F0E0916000EF5FEF71E0936000F0E064
:10013000EC59FF4F8081089580E00895909163000D
:100140009F5F9F71E92FF0E0EC57FF4F8083909302
:10015000630008958091610090916000891B8F7108
:1001600008951F920F920FB60F9211240F900FBE99
:100170000F901F9018951F920F920FB60F92112497
:10018000939A0F900FBE0F901F9018951F920F9289
:100190000FB60F9211242F933F938F939F938091CB
:1001A000AA009091AB0001979093AB008093AA00B6
:1001B0002091A7003091A8003695279582179307C4
:1001C00010F4949A03C082B38C7E82BB8091AA0003
:1001D0009091AB00892B41F48091A7009091A800E9
:1001E0009093AB008093AA009F918F913F912F91A4
:1001F0000F900FBE0F901F90189583B7856083BF37
:1002000083B7886083BF12BE8EE48CBF89B78260DB
:1002100089BF13BE08958EB585608EBD8EB588608A
:100220008EBD1DBC1CBC85E89EE19BBD8ABD89B707
:10023000806189BF089585B5876085BD85B5886073
:1002400085BD14BC87E083BD89B7806889BF0895E8
:100250008091A600803351F48091AC00803321F46A
:1002600082B38C7D82BB0895959A0895959B04C0B6
:1002700081E38093AC00089580E38093AC000895FF
:100280008091A600823379F58091AC00803349F4E7
:1002900082B38C7E82BB15BC1092A8001092A7007E
:1002A00045C0813339F48AEF90E09093A8008093A1
:1002B000A7003CC0823339F484EF91E09093A8000A
:1002C0008093A70033C0833339F488EE93E0909392
:1002D000A8008093A7002AC080ED97E09093A80023
:1002E0008093A70023C08091A7009091A800009759
:1002F00021F480E38093AC0019C08A3F910521F47A
:1003000081E38093AC0012C0843F21E0920721F486
:1003100082E38093AC000AC0883E934021F483E3DB
:100320008093AC0003C084E38093AC008091A7006D
:100330009091A8009093AB008093AA008091AC00AC
:10034000811179CF089506DF8093AE00853008F4DF
:1003500062C0E1DE8093AD00823009F05CC0809322
:10036000A900D9DE8093A60090ED980F943008F094
:1003700052C09091A900890F8093A900CCDE809390
:10038000AC009091A900890F8093A900C4DE8093EE
:10039000AE009091A90089133EC0BDDE8093A500F8
:1003A000863009F038C08091A600803331F4809106
:1003B000AC008053823078F506C0813331F48091EF
:1003C000AC00803341F544DF0FC0823331F48091BB
:1003D000AC008053853038F008958333E1F4809188
:1003E000AC008033C1F44CDF1DBC1CBC82B3847FE5
:1003F00082BB8091AD00A2DE8091A600805F9EDE70
:100400008091AC009BDE8091A900805F97DE809197
:10041000A50094DE559A08956EDEEFDEFCDE0BDF5C
:1004200078948FEF81BB12BA81E08093A400109280
:10043000A8001092A7001092AB001092AA0083DFD0
:06044000FECFF894FFCF8F
:00000001FF
